{
    "contractName": "MintNFTContract",
    "abi": [
        {
            "inputs": [],
            "stateMutability": "payable",
            "type": "constructor"
        },
        {
            "anonymous": false,
            "inputs": [
                {
                    "indexed": true,
                    "internalType": "address",
                    "name": "owner",
                    "type": "address"
                },
                {
                    "indexed": true,
                    "internalType": "address",
                    "name": "approved",
                    "type": "address"
                },
                {
                    "indexed": true,
                    "internalType": "uint256",
                    "name": "tokenId",
                    "type": "uint256"
                }
            ],
            "name": "Approval",
            "type": "event"
        },
        {
            "anonymous": false,
            "inputs": [
                {
                    "indexed": true,
                    "internalType": "address",
                    "name": "owner",
                    "type": "address"
                },
                {
                    "indexed": true,
                    "internalType": "address",
                    "name": "operator",
                    "type": "address"
                },
                {
                    "indexed": false,
                    "internalType": "bool",
                    "name": "approved",
                    "type": "bool"
                }
            ],
            "name": "ApprovalForAll",
            "type": "event"
        },
        {
            "anonymous": false,
            "inputs": [
                {
                    "indexed": true,
                    "internalType": "address",
                    "name": "previousOwner",
                    "type": "address"
                },
                {
                    "indexed": true,
                    "internalType": "address",
                    "name": "newOwner",
                    "type": "address"
                }
            ],
            "name": "OwnershipTransferred",
            "type": "event"
        },
        {
            "anonymous": false,
            "inputs": [
                {
                    "indexed": true,
                    "internalType": "address",
                    "name": "from",
                    "type": "address"
                },
                {
                    "indexed": true,
                    "internalType": "address",
                    "name": "to",
                    "type": "address"
                },
                {
                    "indexed": true,
                    "internalType": "uint256",
                    "name": "tokenId",
                    "type": "uint256"
                }
            ],
            "name": "Transfer",
            "type": "event"
        },
        {
            "inputs": [
                {
                    "internalType": "address",
                    "name": "to",
                    "type": "address"
                },
                {
                    "internalType": "uint256",
                    "name": "tokenId",
                    "type": "uint256"
                }
            ],
            "name": "approve",
            "outputs": [],
            "stateMutability": "nonpayable",
            "type": "function"
        },
        {
            "inputs": [
                {
                    "internalType": "address",
                    "name": "owner",
                    "type": "address"
                }
            ],
            "name": "balanceOf",
            "outputs": [
                {
                    "internalType": "uint256",
                    "name": "",
                    "type": "uint256"
                }
            ],
            "stateMutability": "view",
            "type": "function"
        },
        {
            "inputs": [
                {
                    "internalType": "uint256",
                    "name": "tokenId",
                    "type": "uint256"
                }
            ],
            "name": "getApproved",
            "outputs": [
                {
                    "internalType": "address",
                    "name": "",
                    "type": "address"
                }
            ],
            "stateMutability": "view",
            "type": "function"
        },
        {
            "inputs": [
                {
                    "internalType": "address",
                    "name": "owner",
                    "type": "address"
                },
                {
                    "internalType": "address",
                    "name": "operator",
                    "type": "address"
                }
            ],
            "name": "isApprovedForAll",
            "outputs": [
                {
                    "internalType": "bool",
                    "name": "",
                    "type": "bool"
                }
            ],
            "stateMutability": "view",
            "type": "function"
        },
        {
            "inputs": [],
            "name": "isMintEnabled",
            "outputs": [
                {
                    "internalType": "bool",
                    "name": "",
                    "type": "bool"
                }
            ],
            "stateMutability": "view",
            "type": "function"
        },
        {
            "inputs": [],
            "name": "mint",
            "outputs": [],
            "stateMutability": "payable",
            "type": "function"
        },
        {
            "inputs": [],
            "name": "mintPrice",
            "outputs": [
                {
                    "internalType": "uint256",
                    "name": "",
                    "type": "uint256"
                }
            ],
            "stateMutability": "view",
            "type": "function"
        },
        {
            "inputs": [],
            "name": "name",
            "outputs": [
                {
                    "internalType": "string",
                    "name": "",
                    "type": "string"
                }
            ],
            "stateMutability": "view",
            "type": "function"
        },
        {
            "inputs": [],
            "name": "owner",
            "outputs": [
                {
                    "internalType": "address",
                    "name": "",
                    "type": "address"
                }
            ],
            "stateMutability": "view",
            "type": "function"
        },
        {
            "inputs": [
                {
                    "internalType": "uint256",
                    "name": "tokenId",
                    "type": "uint256"
                }
            ],
            "name": "ownerOf",
            "outputs": [
                {
                    "internalType": "address",
                    "name": "",
                    "type": "address"
                }
            ],
            "stateMutability": "view",
            "type": "function"
        },
        {
            "inputs": [],
            "name": "renounceOwnership",
            "outputs": [],
            "stateMutability": "nonpayable",
            "type": "function"
        },
        {
            "inputs": [
                {
                    "internalType": "address",
                    "name": "from",
                    "type": "address"
                },
                {
                    "internalType": "address",
                    "name": "to",
                    "type": "address"
                },
                {
                    "internalType": "uint256",
                    "name": "tokenId",
                    "type": "uint256"
                }
            ],
            "name": "safeTransferFrom",
            "outputs": [],
            "stateMutability": "nonpayable",
            "type": "function"
        },
        {
            "inputs": [
                {
                    "internalType": "address",
                    "name": "from",
                    "type": "address"
                },
                {
                    "internalType": "address",
                    "name": "to",
                    "type": "address"
                },
                {
                    "internalType": "uint256",
                    "name": "tokenId",
                    "type": "uint256"
                },
                {
                    "internalType": "bytes",
                    "name": "data",
                    "type": "bytes"
                }
            ],
            "name": "safeTransferFrom",
            "outputs": [],
            "stateMutability": "nonpayable",
            "type": "function"
        },
        {
            "inputs": [
                {
                    "internalType": "address",
                    "name": "operator",
                    "type": "address"
                },
                {
                    "internalType": "bool",
                    "name": "approved",
                    "type": "bool"
                }
            ],
            "name": "setApprovalForAll",
            "outputs": [],
            "stateMutability": "nonpayable",
            "type": "function"
        },
        {
            "inputs": [
                {
                    "internalType": "bytes4",
                    "name": "interfaceId",
                    "type": "bytes4"
                }
            ],
            "name": "supportsInterface",
            "outputs": [
                {
                    "internalType": "bool",
                    "name": "",
                    "type": "bool"
                }
            ],
            "stateMutability": "view",
            "type": "function"
        },
        {
            "inputs": [],
            "name": "symbol",
            "outputs": [
                {
                    "internalType": "string",
                    "name": "",
                    "type": "string"
                }
            ],
            "stateMutability": "view",
            "type": "function"
        },
        {
            "inputs": [],
            "name": "toggleIsMintEnabled",
            "outputs": [],
            "stateMutability": "nonpayable",
            "type": "function"
        },
        {
            "inputs": [
                {
                    "internalType": "uint256",
                    "name": "tokenId",
                    "type": "uint256"
                }
            ],
            "name": "tokenURI",
            "outputs": [
                {
                    "internalType": "string",
                    "name": "",
                    "type": "string"
                }
            ],
            "stateMutability": "view",
            "type": "function"
        },
        {
            "inputs": [],
            "name": "totalSupply",
            "outputs": [
                {
                    "internalType": "uint256",
                    "name": "",
                    "type": "uint256"
                }
            ],
            "stateMutability": "view",
            "type": "function"
        },
        {
            "inputs": [
                {
                    "internalType": "address",
                    "name": "from",
                    "type": "address"
                },
                {
                    "internalType": "address",
                    "name": "to",
                    "type": "address"
                },
                {
                    "internalType": "uint256",
                    "name": "tokenId",
                    "type": "uint256"
                }
            ],
            "name": "transferFrom",
            "outputs": [],
            "stateMutability": "nonpayable",
            "type": "function"
        },
        {
            "inputs": [
                {
                    "internalType": "address",
                    "name": "newOwner",
                    "type": "address"
                }
            ],
            "name": "transferOwnership",
            "outputs": [],
            "stateMutability": "nonpayable",
            "type": "function"
        }
    ],
    "bytecode": "66038d7ea4c6800060079081556008608090815267135a5b9d0813919560c21b60a05261010060405260c0918252661352539513919560ca1b60e0529060006200004a838262000177565b50600162000059828262000177565b50505062000076620000706200007c60201b60201c565b62000080565b62000243565b3390565b600680546001600160a01b038381166001600160a01b0319831681179093556040519116919082907f8be0079c531659141344cd1fd0a4f28419497f9722a3daafe3b4186f6b6457e090600090a35050565b634e487b7160e01b600052604160045260246000fd5b600181811c90821680620000fd57607f821691505b6020821081036200011e57634e487b7160e01b600052602260045260246000fd5b50919050565b601f8211156200017257600081815260208120601f850160051c810160208610156200014d5750805b601f850160051c820191505b818110156200016e5782815560010162000159565b5050505b505050565b81516001600160401b03811115620001935762000193620000d2565b620001ab81620001a48454620000e8565b8462000124565b602080601f831160018114620001e35760008415620001ca5750858301515b600019600386901b1c1916600185901b1785556200016e565b600085815260208120601f198616915b828110156200021457888601518255948401946001909101908401620001f3565b5085821015620002335787850151600019600388901b60f8161c191681555b5050505050600190811b01905550565b61164f80620002536000396000f3fe60806040526004361061012a5760003560e01c80636817c76c116100ab578063a22cb4651161006f578063a22cb46514610304578063b88d4fde14610324578063c407321714610344578063c87b56dd14610359578063e985e9c514610379578063f2fde38b1461039957600080fd5b80636817c76c1461028657806370a082311461029c578063715018a6146102bc5780638da5cb5b146102d157806395d89b41146102ef57600080fd5b806318160ddd116100f257806318160ddd146101e857806323b872dd1461020c578063346de50a1461022c57806342842e0e146102465780636352211e1461026657600080fd5b806301ffc9a71461012f57806306fdde0314610164578063081812fc14610186578063095ea7b3146101be5780631249c58b146101e0575b600080fd5b34801561013b57600080fd5b5061014f61014a366004611176565b6103b9565b60405190151581526020015b60405180910390f35b34801561017057600080fd5b5061017961040b565b60405161015b91906111e3565b34801561019257600080fd5b506101a66101a13660046111f6565b61049d565b6040516001600160a01b03909116815260200161015b565b3480156101ca57600080fd5b506101de6101d936600461122b565b6104c4565b005b6101de6105de565b3480156101f457600080fd5b506101fe60085481565b60405190815260200161015b565b34801561021857600080fd5b506101de610227366004611255565b61068a565b34801561023857600080fd5b5060095461014f9060ff1681565b34801561025257600080fd5b506101de610261366004611255565b6106bb565b34801561027257600080fd5b506101a66102813660046111f6565b6106d6565b34801561029257600080fd5b506101fe60075481565b3480156102a857600080fd5b506101fe6102b7366004611291565b610736565b3480156102c857600080fd5b506101de6107bc565b3480156102dd57600080fd5b506006546001600160a01b03166101a6565b3480156102fb57600080fd5b506101796107d0565b34801561031057600080fd5b506101de61031f3660046112ac565b6107df565b34801561033057600080fd5b506101de61033f3660046112fe565b6107ee565b34801561035057600080fd5b506101de610826565b34801561036557600080fd5b506101796103743660046111f6565b610842565b34801561038557600080fd5b5061014f6103943660046113da565b6108b6565b3480156103a557600080fd5b506101de6103b4366004611291565b6108e4565b60006001600160e01b031982166380ac58cd60e01b14806103ea57506001600160e01b03198216635b5e139f60e01b145b8061040557506301ffc9a760e01b6001600160e01b03198316145b92915050565b60606000805461041a9061140d565b80601f01602080910402602001604051908101604052809291908181526020018280546104469061140d565b80156104935780601f1061046857610100808354040283529160200191610493565b820191906000526020600020905b81548152906001019060200180831161047657829003601f168201915b5050505050905090565b60006104a88261095a565b506000908152600460205260409020546001600160a01b031690565b60006104cf826106d6565b9050806001600160a01b0316836001600160a01b0316036105415760405162461bcd60e51b815260206004820152602160248201527f4552433732313a20617070726f76616c20746f2063757272656e74206f776e656044820152603960f91b60648201526084015b60405180910390fd5b336001600160a01b038216148061055d575061055d81336108b6565b6105cf5760405162461bcd60e51b815260206004820152603e60248201527f4552433732313a20617070726f76652063616c6c6572206973206e6f7420746f60448201527f6b656e206f776e6572206e6f7220617070726f76656420666f7220616c6c00006064820152608401610538565b6105d983836109b9565b505050565b60095460ff166106265760405162461bcd60e51b8152602060048201526013602482015272135a5b9d1a5b99c81b9bdd08195b98589b1959606a1b6044820152606401610538565b60075434146106655760405162461bcd60e51b815260206004820152600b60248201526a77726f6e672076616c756560a81b6044820152606401610538565b600880549060006106758361145d565b90915550506008546106873382610a27565b50565b6106943382610a41565b6106b05760405162461bcd60e51b815260040161053890611476565b6105d9838383610aa0565b6105d9838383604051806020016040528060008152506107ee565b6000818152600260205260408120546001600160a01b0316806104055760405162461bcd60e51b8152602060048201526018602482015277115490cdcc8c4e881a5b9d985b1a59081d1bdad95b88125160421b6044820152606401610538565b60006001600160a01b0382166107a05760405162461bcd60e51b815260206004820152602960248201527f4552433732313a2061646472657373207a65726f206973206e6f7420612076616044820152683634b21037bbb732b960b91b6064820152608401610538565b506001600160a01b031660009081526003602052604090205490565b6107c4610c3c565b6107ce6000610c96565b565b60606001805461041a9061140d565b6107ea338383610ce8565b5050565b6107f83383610a41565b6108145760405162461bcd60e51b815260040161053890611476565b61082084848484610db6565b50505050565b61082e610c3c565b6009805460ff19811660ff90911615179055565b606061084d8261095a565b600061086460408051602081019091526000815290565b9050600081511161088457604051806020016040528060008152506108af565b8061088e84610de9565b60405160200161089f9291906114c4565b6040516020818303038152906040525b9392505050565b6001600160a01b03918216600090815260056020908152604080832093909416825291909152205460ff1690565b6108ec610c3c565b6001600160a01b0381166109515760405162461bcd60e51b815260206004820152602660248201527f4f776e61626c653a206e6577206f776e657220697320746865207a65726f206160448201526564647265737360d01b6064820152608401610538565b61068781610c96565b6000818152600260205260409020546001600160a01b03166106875760405162461bcd60e51b8152602060048201526018602482015277115490cdcc8c4e881a5b9d985b1a59081d1bdad95b88125160421b6044820152606401610538565b600081815260046020526040902080546001600160a01b0319166001600160a01b03841690811790915581906109ee826106d6565b6001600160a01b03167f8c5be1e5ebec7d5bd14f71427d1e84f3dd0314c0f7b2291e5b200ac8c7c3b92560405160405180910390a45050565b6107ea828260405180602001604052806000815250610eea565b600080610a4d836106d6565b9050806001600160a01b0316846001600160a01b03161480610a745750610a7481856108b6565b80610a985750836001600160a01b0316610a8d8461049d565b6001600160a01b0316145b949350505050565b826001600160a01b0316610ab3826106d6565b6001600160a01b031614610b175760405162461bcd60e51b815260206004820152602560248201527f4552433732313a207472616e736665722066726f6d20696e636f72726563742060448201526437bbb732b960d91b6064820152608401610538565b6001600160a01b038216610b795760405162461bcd60e51b8152602060048201526024808201527f4552433732313a207472616e7366657220746f20746865207a65726f206164646044820152637265737360e01b6064820152608401610538565b610b846000826109b9565b6001600160a01b0383166000908152600360205260408120805460019290610bad9084906114f3565b90915550506001600160a01b0382166000908152600360205260408120805460019290610bdb908490611506565b909155505060008181526002602052604080822080546001600160a01b0319166001600160a01b0386811691821790925591518493918716917fddf252ad1be2c89b69c2b068fc378daa952ba7f163c4a11628f55a4df523b3ef91a4505050565b6006546001600160a01b031633146107ce5760405162461bcd60e51b815260206004820181905260248201527f4f776e61626c653a2063616c6c6572206973206e6f7420746865206f776e65726044820152606401610538565b600680546001600160a01b038381166001600160a01b0319831681179093556040519116919082907f8be0079c531659141344cd1fd0a4f28419497f9722a3daafe3b4186f6b6457e090600090a35050565b816001600160a01b0316836001600160a01b031603610d495760405162461bcd60e51b815260206004820152601960248201527f4552433732313a20617070726f766520746f2063616c6c6572000000000000006044820152606401610538565b6001600160a01b03838116600081815260056020908152604080832094871680845294825291829020805460ff191686151590811790915591519182527f17307eab39ab6107e8899845ad3d59bd9653f200f220920489ca2b5937696c31910160405180910390a3505050565b610dc1848484610aa0565b610dcd84848484610f1d565b6108205760405162461bcd60e51b815260040161053890611519565b606081600003610e105750506040805180820190915260018152600360fc1b602082015290565b8160005b8115610e3a5780610e248161145d565b9150610e339050600a83611581565b9150610e14565b60008167ffffffffffffffff811115610e5557610e556112e8565b6040519080825280601f01601f191660200182016040528015610e7f576020820181803683370190505b5090505b8415610a9857610e946001836114f3565b9150610ea1600a86611595565b610eac906030611506565b60f81b818381518110610ec157610ec16115a9565b60200101906001600160f81b031916908160001a905350610ee3600a86611581565b9450610e83565b610ef4838361101e565b610f016000848484610f1d565b6105d95760405162461bcd60e51b815260040161053890611519565b60006001600160a01b0384163b1561101357604051630a85bd0160e11b81526001600160a01b0385169063150b7a0290610f619033908990889088906004016115bf565b6020604051808303816000875af1925050508015610f9c575060408051601f3d908101601f19168201909252610f99918101906115fc565b60015b610ff9573d808015610fca576040519150601f19603f3d011682016040523d82523d6000602084013e610fcf565b606091505b508051600003610ff15760405162461bcd60e51b815260040161053890611519565b805181602001fd5b6001600160e01b031916630a85bd0160e11b149050610a98565b506001949350505050565b6001600160a01b0382166110745760405162461bcd60e51b815260206004820181905260248201527f4552433732313a206d696e7420746f20746865207a65726f20616464726573736044820152606401610538565b6000818152600260205260409020546001600160a01b0316156110d95760405162461bcd60e51b815260206004820152601c60248201527f4552433732313a20746f6b656e20616c7265616479206d696e746564000000006044820152606401610538565b6001600160a01b0382166000908152600360205260408120805460019290611102908490611506565b909155505060008181526002602052604080822080546001600160a01b0319166001600160a01b03861690811790915590518392907fddf252ad1be2c89b69c2b068fc378daa952ba7f163c4a11628f55a4df523b3ef908290a45050565b6001600160e01b03198116811461068757600080fd5b60006020828403121561118857600080fd5b81356108af81611160565b60005b838110156111ae578181015183820152602001611196565b50506000910152565b600081518084526111cf816020860160208601611193565b601f01601f19169290920160200192915050565b6020815260006108af60208301846111b7565b60006020828403121561120857600080fd5b5035919050565b80356001600160a01b038116811461122657600080fd5b919050565b6000806040838503121561123e57600080fd5b6112478361120f565b946020939093013593505050565b60008060006060848603121561126a57600080fd5b6112738461120f565b92506112816020850161120f565b9150604084013590509250925092565b6000602082840312156112a357600080fd5b6108af8261120f565b600080604083850312156112bf57600080fd5b6112c88361120f565b9150602083013580151581146112dd57600080fd5b809150509250929050565b634e487b7160e01b600052604160045260246000fd5b6000806000806080858703121561131457600080fd5b61131d8561120f565b935061132b6020860161120f565b925060408501359150606085013567ffffffffffffffff8082111561134f57600080fd5b818701915087601f83011261136357600080fd5b813581811115611375576113756112e8565b604051601f8201601f19908116603f0116810190838211818310171561139d5761139d6112e8565b816040528281528a60208487010111156113b657600080fd5b82602086016020830137600060208483010152809550505050505092959194509250565b600080604083850312156113ed57600080fd5b6113f68361120f565b91506114046020840161120f565b90509250929050565b600181811c9082168061142157607f821691505b60208210810361144157634e487b7160e01b600052602260045260246000fd5b50919050565b634e487b7160e01b600052601160045260246000fd5b60006001820161146f5761146f611447565b5060010190565b6020808252602e908201527f4552433732313a2063616c6c6572206973206e6f7420746f6b656e206f776e6560408201526d1c881b9bdc88185c1c1c9bdd995960921b606082015260800190565b600083516114d6818460208801611193565b8351908301906114ea818360208801611193565b01949350505050565b8181038181111561040557610405611447565b8082018082111561040557610405611447565b60208082526032908201527f4552433732313a207472616e7366657220746f206e6f6e20455243373231526560408201527131b2b4bb32b91034b6b83632b6b2b73a32b960711b606082015260800190565b634e487b7160e01b600052601260045260246000fd5b6000826115905761159061156b565b500490565b6000826115a4576115a461156b565b500690565b634e487b7160e01b600052603260045260246000fd5b6001600160a01b03858116825284166020820152604081018390526080606082018190526000906115f2908301846111b7565b9695505050505050565b60006020828403121561160e57600080fd5b81516108af8161116056fea264697066735822122073a2f593aa99a77396e648bfe66995fa017b047350be7e743280da4e50d0080164736f6c63430008110033",
    "sourcePath": "/home/tanweilun/Documents/Git/dapp-auction/truffle/contracts/NFT.sol",
    "compiler": {
        "name": "solc",
        "version": "0.8.17+commit.8df45f5f"
    },
    "functionHashes": {
        "approve(address,uint256)": "095ea7b3",
        "balanceOf(address)": "70a08231",
        "getApproved(uint256)": "081812fc",
        "isApprovedForAll(address,address)": "e985e9c5",
        "isMintEnabled()": "346de50a",
        "mint()": "1249c58b",
        "mintPrice()": "6817c76c",
        "name()": "06fdde03",
        "owner()": "8da5cb5b",
        "ownerOf(uint256)": "6352211e",
        "renounceOwnership()": "715018a6",
        "safeTransferFrom(address,address,uint256)": "42842e0e",
        "safeTransferFrom(address,address,uint256,bytes)": "b88d4fde",
        "setApprovalForAll(address,bool)": "a22cb465",
        "supportsInterface(bytes4)": "01ffc9a7",
        "symbol()": "95d89b41",
        "toggleIsMintEnabled()": "c4073217",
        "tokenURI(uint256)": "c87b56dd",
        "totalSupply()": "18160ddd",
        "transferFrom(address,address,uint256)": "23b872dd",
        "transferOwnership(address)": "f2fde38b"
    },
    "gasEstimates": {
        "creation": {
            "codeDepositCost": "1142200",
            "executionCost": "infinite",
            "totalCost": "infinite"
        },
        "external": {
            "approve(address,uint256)": "infinite",
            "balanceOf(address)": "2634",
            "getApproved(uint256)": "4792",
            "isApprovedForAll(address,address)": "infinite",
            "isMintEnabled()": "2366",
            "mint()": "infinite",
            "mintPrice()": "2318",
            "name()": "infinite",
            "owner()": "2420",
            "ownerOf(uint256)": "2649",
            "renounceOwnership()": "infinite",
            "safeTransferFrom(address,address,uint256)": "infinite",
            "safeTransferFrom(address,address,uint256,bytes)": "infinite",
            "setApprovalForAll(address,bool)": "26705",
            "supportsInterface(bytes4)": "534",
            "symbol()": "infinite",
            "toggleIsMintEnabled()": "26613",
            "tokenURI(uint256)": "infinite",
            "totalSupply()": "2318",
            "transferFrom(address,address,uint256)": "infinite",
            "transferOwnership(address)": "28468"
        }
    }
}